{
  "_format": "hh-sol-artifact-1",
  "contractName": "TFFactory",
  "sourceName": "contracts/TFFactory.sol",
  "abi": [
    {
      "anonymous": false,
      "inputs": [
        {
          "indexed": true,
          "internalType": "address",
          "name": "from",
          "type": "address"
        },
        {
          "indexed": false,
          "internalType": "address",
          "name": "contractAddress",
          "type": "address"
        }
      ],
      "name": "NewContractCreated",
      "type": "event"
    },
    {
      "inputs": [
        {
          "internalType": "address",
          "name": "_routerAddress",
          "type": "address"
        },
        {
          "internalType": "address",
          "name": "_tokenAddress",
          "type": "address"
        },
        {
          "internalType": "address",
          "name": "_rewardAddress",
          "type": "address"
        },
        {
          "internalType": "uint256",
          "name": "_previousVolume",
          "type": "uint256"
        },
        {
          "internalType": "uint256",
          "name": "_previousDay",
          "type": "uint256"
        },
        {
          "internalType": "uint256",
          "name": "_totalDays",
          "type": "uint256"
        },
        {
          "internalType": "uint256",
          "name": "_upLimit",
          "type": "uint256"
        },
        {
          "internalType": "uint256",
          "name": "_downLimit",
          "type": "uint256"
        }
      ],
      "name": "newFarm",
      "outputs": [
        {
          "internalType": "address",
          "name": "",
          "type": "address"
        }
      ],
      "stateMutability": "nonpayable",
      "type": "function"
    }
  ],
  "bytecode": "0x608060405234801561001057600080fd5b50615f4d806100206000396000f3fe60806040523480156200001157600080fd5b50600436106200002e5760003560e01c806365123b721462000033575b600080fd5b6200005160048036038101906200004b9190620004de565b62000069565b60405162000060919062000604565b60405180910390f35b600080898989898989898960405162000082906200045f565b6200009598979695949392919062000621565b604051809103906000f080158015620000b2573d6000803e3d6000fd5b509050620001776040518060400160405280600e81526020017f6669727374206f776e65722025730000000000000000000000000000000000008152508273ffffffffffffffffffffffffffffffffffffffff16638da5cb5b6040518163ffffffff1660e01b815260040160206040518083038186803b1580156200013657600080fd5b505afa1580156200014b573d6000803e3d6000fd5b505050506040513d601f19601f82011682018060405250810190620001719190620004b2565b620002f3565b8073ffffffffffffffffffffffffffffffffffffffff1663f2fde38b336040518263ffffffff1660e01b8152600401620001b2919062000604565b600060405180830381600087803b158015620001cd57600080fd5b505af1158015620001e2573d6000803e3d6000fd5b505050506200028d60405180606001604052806028815260200162005ef060289139828373ffffffffffffffffffffffffffffffffffffffff16638da5cb5b6040518163ffffffff1660e01b815260040160206040518083038186803b1580156200024c57600080fd5b505afa15801562000261573d6000803e3d6000fd5b505050506040513d601f19601f82011682018060405250810190620002879190620004b2565b62000393565b60008190503373ffffffffffffffffffffffffffffffffffffffff167f5674de2ec80a1803e6847355825b81c1c89932d3d1d0b97aae70f3a68551d34d82604051620002da919062000604565b60405180910390a2809250505098975050505050505050565b6200038f82826040516024016200030c929190620006af565b6040516020818303038152906040527f319af333000000000000000000000000000000000000000000000000000000007bffffffffffffffffffffffffffffffffffffffffffffffffffffffff19166020820180517bffffffffffffffffffffffffffffffffffffffffffffffffffffffff838183161783525050505062000436565b5050565b62000431838383604051602401620003ae93929190620006e3565b6040516020818303038152906040527ffcec75e0000000000000000000000000000000000000000000000000000000007bffffffffffffffffffffffffffffffffffffffffffffffffffffffff19166020820180517bffffffffffffffffffffffffffffffffffffffffffffffffffffffff838183161783525050505062000436565b505050565b60008151905060006a636f6e736f6c652e6c6f679050602083016000808483855afa5050505050565b6156f380620007fd83390190565b6000813590506200047e81620007c8565b92915050565b6000815190506200049581620007c8565b92915050565b600081359050620004ac81620007e2565b92915050565b600060208284031215620004c557600080fd5b6000620004d58482850162000484565b91505092915050565b600080600080600080600080610100898b031215620004fc57600080fd5b60006200050c8b828c016200046d565b98505060206200051f8b828c016200046d565b9750506040620005328b828c016200046d565b9650506060620005458b828c016200049b565b9550506080620005588b828c016200049b565b94505060a06200056b8b828c016200049b565b93505060c06200057e8b828c016200049b565b92505060e0620005918b828c016200049b565b9150509295985092959890939650565b620005ac8162000743565b82525050565b6000620005bf8262000727565b620005cb818562000732565b9350620005dd81856020860162000781565b620005e881620007b7565b840191505092915050565b620005fe8162000777565b82525050565b60006020820190506200061b6000830184620005a1565b92915050565b60006101008201905062000639600083018b620005a1565b62000648602083018a620005a1565b620006576040830189620005a1565b620006666060830188620005f3565b620006756080830187620005f3565b6200068460a0830186620005f3565b6200069360c0830185620005f3565b620006a260e0830184620005f3565b9998505050505050505050565b60006040820190508181036000830152620006cb8185620005b2565b9050620006dc6020830184620005a1565b9392505050565b60006060820190508181036000830152620006ff8186620005b2565b9050620007106020830185620005a1565b6200071f6040830184620005a1565b949350505050565b600081519050919050565b600082825260208201905092915050565b6000620007508262000757565b9050919050565b600073ffffffffffffffffffffffffffffffffffffffff82169050919050565b6000819050919050565b60005b83811015620007a157808201518184015260208101905062000784565b83811115620007b1576000848401525b50505050565b6000601f19601f8301169050919050565b620007d38162000743565b8114620007df57600080fd5b50565b620007ed8162000777565b8114620007f957600080fd5b5056fe60e060405260006009553480156200001657600080fd5b50604051620056f3380380620056f383398181016040528101906200003c9190620004a2565b6200005c620000506200037c60201b60201c565b6200038460201b60201c565b600073ffffffffffffffffffffffffffffffffffffffff168873ffffffffffffffffffffffffffffffffffffffff1614158015620000c75750600073ffffffffffffffffffffffffffffffffffffffff168773ffffffffffffffffffffffffffffffffffffffff1614155b8015620001015750600073ffffffffffffffffffffffffffffffffffffffff168673ffffffffffffffffffffffffffffffffffffffff1614155b62000143576040517f08c379a00000000000000000000000000000000000000000000000000000000081526004016200013a906200058c565b60405180910390fd5b426080818152505087600160006101000a81548173ffffffffffffffffffffffffffffffffffffffff021916908373ffffffffffffffffffffffffffffffffffffffff16021790555086600260006101000a81548173ffffffffffffffffffffffffffffffffffffffff021916908373ffffffffffffffffffffffffffffffffffffffff16021790555085600360006101000a81548173ffffffffffffffffffffffffffffffffffffffff021916908373ffffffffffffffffffffffffffffffffffffffff16021790555084600460008081526020019081526020016000208190555083600b8190555082600a81905550600160009054906101000a900473ffffffffffffffffffffffffffffffffffffffff1673ffffffffffffffffffffffffffffffffffffffff166373b295c26040518163ffffffff1660e01b815260040160206040518083038186803b1580156200029d57600080fd5b505afa158015620002b2573d6000803e3d6000fd5b505050506040513d601f19601f82011682018060405250810190620002d8919062000476565b600d60006101000a81548173ffffffffffffffffffffffffffffffffffffffff021916908373ffffffffffffffffffffffffffffffffffffffff160217905550606482670de0b6b3a7640000620003309190620005f7565b6200033c9190620005bf565b60a08181525050606481670de0b6b3a76400006200035b9190620005f7565b620003679190620005bf565b60c08181525050505050505050505062000777565b600033905090565b60008060009054906101000a900473ffffffffffffffffffffffffffffffffffffffff169050816000806101000a81548173ffffffffffffffffffffffffffffffffffffffff021916908373ffffffffffffffffffffffffffffffffffffffff1602179055508173ffffffffffffffffffffffffffffffffffffffff168173ffffffffffffffffffffffffffffffffffffffff167f8be0079c531659141344cd1fd0a4f28419497f9722a3daafe3b4186f6b6457e060405160405180910390a35050565b600081519050620004598162000743565b92915050565b60008151905062000470816200075d565b92915050565b6000602082840312156200048957600080fd5b6000620004998482850162000448565b91505092915050565b600080600080600080600080610100898b031215620004c057600080fd5b6000620004d08b828c0162000448565b9850506020620004e38b828c0162000448565b9750506040620004f68b828c0162000448565b9650506060620005098b828c016200045f565b95505060806200051c8b828c016200045f565b94505060a06200052f8b828c016200045f565b93505060c0620005428b828c016200045f565b92505060e0620005558b828c016200045f565b9150509295985092959890939650565b600062000574602283620005ae565b91506200058182620006f4565b604082019050919050565b60006020820190508181036000830152620005a78162000565565b9050919050565b600082825260208201905092915050565b6000620005cc826200068c565b9150620005d9836200068c565b925082620005ec57620005eb620006c5565b5b828204905092915050565b600062000604826200068c565b915062000611836200068c565b9250817fffffffffffffffffffffffffffffffffffffffffffffffffffffffffffffffff04831182151516156200064d576200064c62000696565b5b828202905092915050565b600062000665826200066c565b9050919050565b600073ffffffffffffffffffffffffffffffffffffffff82169050919050565b6000819050919050565b7f4e487b7100000000000000000000000000000000000000000000000000000000600052601160045260246000fd5b7f4e487b7100000000000000000000000000000000000000000000000000000000600052601260045260246000fd5b7f5b5d204164647265737365732063616e206e6f7420626520302061646472657360008201527f732e000000000000000000000000000000000000000000000000000000000000602082015250565b6200074e8162000658565b81146200075a57600080fd5b50565b62000768816200068c565b81146200077457600080fd5b50565b60805160a05160c051614f1b620007d86000396000818161234c0152818161237401528181612eb90152612ee10152600081816122ea0152818161231201528181612e570152612e7f01526000818161103101526115eb0152614f1b6000f3fe6080604052600436106101665760003560e01c80637e2ca288116100d1578063a2a1623d1161008a578063ceb7f99511610064578063ceb7f9951461054c578063d06ca61f14610589578063de2af4b0146105c6578063f2fde38b146105f157610166565b8063a2a1623d146104b6578063b203dc60146104e6578063cb43b2dd1461052357610166565b80637e2ca2881461038b5780638a657e67146103b65780638acc3673146103e65780638da5cb5b14610411578063940ce8721461043c57806394f557891461047957610166565b80636572ca0c116101235780636572ca0c1461027b578063676528d1146102a6578063715018a6146102e357806378fb427a146102fa5780637a40624b146103235780637a42416a1461034e57610166565b8063078e36491461016b57806307a779bc146101965780630b83a727146101c157806316c621e0146101d85780631f00ca74146102015780631f924d861461023e575b600080fd5b34801561017757600080fd5b5061018061061a565b60405161018d9190614588565b60405180910390f35b3480156101a257600080fd5b506101ab610620565b6040516101b89190614588565b60405180910390f35b3480156101cd57600080fd5b506101d6610897565b005b3480156101e457600080fd5b506101ff60048036038101906101fa9190613ce2565b610e6b565b005b34801561020d57600080fd5b5061022860048036038101906102239190613d34565b610f52565b6040516102359190614329565b60405180910390f35b34801561024a57600080fd5b5061026560048036038101906102609190613ce2565b611011565b6040516102729190614588565b60405180910390f35b34801561028757600080fd5b50610290611029565b60405161029d9190614588565b60405180910390f35b3480156102b257600080fd5b506102cd60048036038101906102c89190613e0c565b61106a565b6040516102da9190614329565b60405180910390f35b3480156102ef57600080fd5b506102f86114db565b005b34801561030657600080fd5b50610321600480360381019061031c9190613ce2565b611563565b005b34801561032f57600080fd5b506103386115e9565b6040516103459190614588565b60405180910390f35b34801561035a57600080fd5b5061037560048036038101906103709190613e0c565b61160d565b6040516103829190614329565b60405180910390f35b34801561039757600080fd5b506103a0611c23565b6040516103ad9190614588565b60405180910390f35b6103d060048036038101906103cb9190613d8c565b611c29565b6040516103dd9190614329565b60405180910390f35b3480156103f257600080fd5b506103fb612172565b6040516104089190614588565b60405180910390f35b34801561041d57600080fd5b50610426612178565b6040516104339190614285565b60405180910390f35b34801561044857600080fd5b50610463600480360381019061045e9190613c3c565b6121a1565b6040516104709190614588565b60405180910390f35b34801561048557600080fd5b506104a0600480360381019061049b9190613ce2565b6121c6565b6040516104ad9190614588565b60405180910390f35b6104d060048036038101906104cb9190613d8c565b6123f8565b6040516104dd9190614329565b60405180910390f35b3480156104f257600080fd5b5061050d60048036038101906105089190613ce2565b612839565b60405161051a9190614588565b60405180910390f35b34801561052f57600080fd5b5061054a60048036038101906105459190613ce2565b612851565b005b34801561055857600080fd5b50610573600480360381019061056e9190613ce2565b61297b565b6040516105809190614588565b60405180910390f35b34801561059557600080fd5b506105b060048036038101906105ab9190613d34565b612993565b6040516105bd9190614329565b60405180910390f35b3480156105d257600080fd5b506105db612a52565b6040516105e8919061434b565b60405180910390f35b3480156105fd57600080fd5b5061061860048036038101906106139190613c13565b612a91565b005b600a5481565b600080600090506000670de0b6b3a7640000905060005b61067e600860003373ffffffffffffffffffffffffffffffffffffffff1673ffffffffffffffffffffffffffffffffffffffff168152602001908152602001600020612b89565b81101561088e57600c546106d982600860003373ffffffffffffffffffffffffffffffffffffffff1673ffffffffffffffffffffffffffffffffffffffff168152602001908152602001600020612b9e90919063ffffffff16565b101561087b576107f5600560003373ffffffffffffffffffffffffffffffffffffffff1673ffffffffffffffffffffffffffffffffffffffff168152602001908152602001600020600061077484600860003373ffffffffffffffffffffffffffffffffffffffff1673ffffffffffffffffffffffffffffffffffffffff168152602001908152602001600020612b9e90919063ffffffff16565b815260200190815260200160002054670de0b6b3a7640000600660006107e186600860003373ffffffffffffffffffffffffffffffffffffffff1673ffffffffffffffffffffffffffffffffffffffff168152602001908152602001600020612b9e90919063ffffffff16565b815260200190815260200160002054612bb8565b915061086d826007600061085085600860003373ffffffffffffffffffffffffffffffffffffffff1673ffffffffffffffffffffffffffffffffffffffff168152602001908152602001600020612b9e90919063ffffffff16565b815260200190815260200160002054670de0b6b3a7640000612bb8565b83610878919061477a565b92505b80806108869061493b565b915050610637565b50819250505090565b61089f611029565b6001600c546108ae919061477a565b111580156108c05750600a54600c5414155b156108ce576108cd612d59565b5b600080670de0b6b3a764000090506000610925600860003373ffffffffffffffffffffffffffffffffffffffff1673ffffffffffffffffffffffffffffffffffffffff168152602001908152602001600020612b89565b905061097a600c54600860003373ffffffffffffffffffffffffffffffffffffffff1673ffffffffffffffffffffffffffffffffffffffff16815260200190815260200160002061301290919063ffffffff16565b1561098f5760018161098c919061485b565b90505b60008167ffffffffffffffff8111156109d1577f4e487b7100000000000000000000000000000000000000000000000000000000600052604160045260246000fd5b6040519080825280602002602001820160405280156109ff5781602001602082028036833780820191505090505b50905060005b82811015610cac57600c54610a6182600860003373ffffffffffffffffffffffffffffffffffffffff1673ffffffffffffffffffffffffffffffffffffffff168152602001908152602001600020612b9e90919063ffffffff16565b1015610c9957610b7d600560003373ffffffffffffffffffffffffffffffffffffffff1673ffffffffffffffffffffffffffffffffffffffff1681526020019081526020016000206000610afc84600860003373ffffffffffffffffffffffffffffffffffffffff1673ffffffffffffffffffffffffffffffffffffffff168152602001908152602001600020612b9e90919063ffffffff16565b815260200190815260200160002054670de0b6b3a764000060066000610b6986600860003373ffffffffffffffffffffffffffffffffffffffff1673ffffffffffffffffffffffffffffffffffffffff168152602001908152602001600020612b9e90919063ffffffff16565b815260200190815260200160002054612bb8565b9350610bf58460076000610bd885600860003373ffffffffffffffffffffffffffffffffffffffff1673ffffffffffffffffffffffffffffffffffffffff168152602001908152602001600020612b9e90919063ffffffff16565b815260200190815260200160002054670de0b6b3a7640000612bb8565b85610c00919061477a565b9450610c5381600860003373ffffffffffffffffffffffffffffffffffffffff1673ffffffffffffffffffffffffffffffffffffffff168152602001908152602001600020612b9e90919063ffffffff16565b828281518110610c8c577f4e487b7100000000000000000000000000000000000000000000000000000000600052603260045260246000fd5b6020026020010181815250505b8080610ca49061493b565b915050610a05565b5060005b82811015610d9b57610d49828281518110610cf4577f4e487b7100000000000000000000000000000000000000000000000000000000600052603260045260246000fd5b6020026020010151600860003373ffffffffffffffffffffffffffffffffffffffff1673ffffffffffffffffffffffffffffffffffffffff16815260200190815260200160002061302c90919063ffffffff16565b610d88576040517f08c379a0000000000000000000000000000000000000000000000000000000008152600401610d7f90614388565b60405180910390fd5b8080610d939061493b565b915050610cb0565b5060008411610ddf576040517f08c379a0000000000000000000000000000000000000000000000000000000008152600401610dd690614508565b60405180910390fd5b610e2c3385600360009054906101000a900473ffffffffffffffffffffffffffffffffffffffff1673ffffffffffffffffffffffffffffffffffffffff166130469092919063ffffffff16565b7f106f923f993c2149d49b4255ff723acafa1f2d94393f561d3eda32ae348f72413385604051610e5d929190614300565b60405180910390a150505050565b610e736130cc565b73ffffffffffffffffffffffffffffffffffffffff16610e91612178565b73ffffffffffffffffffffffffffffffffffffffff1614610ee7576040517f08c379a0000000000000000000000000000000000000000000000000000000008152600401610ede906144c8565b60405180910390fd5b8060096000828254610ef9919061477a565b92505081905550610f4f333083600360009054906101000a900473ffffffffffffffffffffffffffffffffffffffff1673ffffffffffffffffffffffffffffffffffffffff166130d4909392919063ffffffff16565b50565b6060600160009054906101000a900473ffffffffffffffffffffffffffffffffffffffff1673ffffffffffffffffffffffffffffffffffffffff16631f00ca748585856040518463ffffffff1660e01b8152600401610fb3939291906145a3565b60006040518083038186803b158015610fcb57600080fd5b505afa158015610fdf573d6000803e3d6000fd5b505050506040513d6000823e3d601f19601f820116820180604052508101906110089190613c78565b90509392505050565b60066020528060005260406000206000915090505481565b6000620151807f00000000000000000000000000000000000000000000000000000000000000004261105b919061485b565b61106591906147d0565b905090565b6060600d60009054906101000a900473ffffffffffffffffffffffffffffffffffffffff1673ffffffffffffffffffffffffffffffffffffffff1685856001888890506110b7919061485b565b8181106110ed577f4e487b7100000000000000000000000000000000000000000000000000000000600052603260045260246000fd5b90506020020160208101906111029190613c13565b73ffffffffffffffffffffffffffffffffffffffff1614611158576040517f08c379a000000000000000000000000000000000000000000000000000000000815260040161114f90614428565b60405180910390fd5b600260009054906101000a900473ffffffffffffffffffffffffffffffffffffffff1673ffffffffffffffffffffffffffffffffffffffff16858560008181106111cb577f4e487b7100000000000000000000000000000000000000000000000000000000600052603260045260246000fd5b90506020020160208101906111e09190613c13565b73ffffffffffffffffffffffffffffffffffffffff1614611236576040517f08c379a000000000000000000000000000000000000000000000000000000000815260040161122d90614428565b60405180910390fd5b61128e611241611029565b600860003373ffffffffffffffffffffffffffffffffffffffff1673ffffffffffffffffffffffffffffffffffffffff16815260200190815260200160002061301290919063ffffffff16565b1580156112a35750600a546112a1611029565b105b15611340576113006112b3611029565b600860003373ffffffffffffffffffffffffffffffffffffffff1673ffffffffffffffffffffffffffffffffffffffff16815260200190815260200160002061315d90919063ffffffff16565b61133f576040517f08c379a000000000000000000000000000000000000000000000000000000000815260040161133690614488565b60405180910390fd5b5b61138f333089600260009054906101000a900473ffffffffffffffffffffffffffffffffffffffff1673ffffffffffffffffffffffffffffffffffffffff166130d4909392919063ffffffff16565b6113fe600160009054906101000a900473ffffffffffffffffffffffffffffffffffffffff1688600260009054906101000a900473ffffffffffffffffffffffffffffffffffffffff1673ffffffffffffffffffffffffffffffffffffffff166131779092919063ffffffff16565b600a54600c54146114135761141287613298565b5b600160009054906101000a900473ffffffffffffffffffffffffffffffffffffffff1673ffffffffffffffffffffffffffffffffffffffff1663676528d18888888888886040518763ffffffff1660e01b815260040161147896959493929190614623565b600060405180830381600087803b15801561149257600080fd5b505af11580156114a6573d6000803e3d6000fd5b505050506040513d6000823e3d601f19601f820116820180604052508101906114cf9190613c78565b90509695505050505050565b6114e36130cc565b73ffffffffffffffffffffffffffffffffffffffff16611501612178565b73ffffffffffffffffffffffffffffffffffffffff1614611557576040517f08c379a000000000000000000000000000000000000000000000000000000000815260040161154e906144c8565b60405180910390fd5b6115616000613383565b565b61156b6130cc565b73ffffffffffffffffffffffffffffffffffffffff16611589612178565b73ffffffffffffffffffffffffffffffffffffffff16146115df576040517f08c379a00000000000000000000000000000000000000000000000000000000081526004016115d6906144c8565b60405180910390fd5b80600a8190555050565b7f000000000000000000000000000000000000000000000000000000000000000081565b6060600d60009054906101000a900473ffffffffffffffffffffffffffffffffffffffff1673ffffffffffffffffffffffffffffffffffffffff16858560018888905061165a919061485b565b818110611690577f4e487b7100000000000000000000000000000000000000000000000000000000600052603260045260246000fd5b90506020020160208101906116a59190613c13565b73ffffffffffffffffffffffffffffffffffffffff16146116fb576040517f08c379a00000000000000000000000000000000000000000000000000000000081526004016116f290614428565b60405180910390fd5b600260009054906101000a900473ffffffffffffffffffffffffffffffffffffffff1673ffffffffffffffffffffffffffffffffffffffff168585600081811061176e577f4e487b7100000000000000000000000000000000000000000000000000000000600052603260045260246000fd5b90506020020160208101906117839190613c13565b73ffffffffffffffffffffffffffffffffffffffff16146117d9576040517f08c379a00000000000000000000000000000000000000000000000000000000081526004016117d090614428565b60405180910390fd5b6118316117e4611029565b600860003373ffffffffffffffffffffffffffffffffffffffff1673ffffffffffffffffffffffffffffffffffffffff16815260200190815260200160002061301290919063ffffffff16565b1580156118465750600a54611844611029565b105b156118e3576118a3611856611029565b600860003373ffffffffffffffffffffffffffffffffffffffff1673ffffffffffffffffffffffffffffffffffffffff16815260200190815260200160002061315d90919063ffffffff16565b6118e2576040517f08c379a00000000000000000000000000000000000000000000000000000000081526004016118d9906143a8565b60405180910390fd5b5b611a263330600160009054906101000a900473ffffffffffffffffffffffffffffffffffffffff1673ffffffffffffffffffffffffffffffffffffffff16631f00ca748b8a8a6040518463ffffffff1660e01b8152600401611947939291906145a3565b60006040518083038186803b15801561195f57600080fd5b505afa158015611973573d6000803e3d6000fd5b505050506040513d6000823e3d601f19601f8201168201806040525081019061199c9190613c78565b6000815181106119d5577f4e487b7100000000000000000000000000000000000000000000000000000000600052603260045260246000fd5b6020026020010151600260009054906101000a900473ffffffffffffffffffffffffffffffffffffffff1673ffffffffffffffffffffffffffffffffffffffff166130d4909392919063ffffffff16565b611a95600160009054906101000a900473ffffffffffffffffffffffffffffffffffffffff1687600260009054906101000a900473ffffffffffffffffffffffffffffffffffffffff1673ffffffffffffffffffffffffffffffffffffffff166131779092919063ffffffff16565b600160009054906101000a900473ffffffffffffffffffffffffffffffffffffffff1673ffffffffffffffffffffffffffffffffffffffff16637a42416a8888888888886040518763ffffffff1660e01b8152600401611afa96959493929190614623565b600060405180830381600087803b158015611b1457600080fd5b505af1158015611b28573d6000803e3d6000fd5b505050506040513d6000823e3d601f19601f82011682018060405250810190611b519190613c78565b9050600a54600c5414611ba957611ba881600081518110611b9b577f4e487b7100000000000000000000000000000000000000000000000000000000600052603260045260246000fd5b6020026020010151613298565b5b611c19600160009054906101000a900473ffffffffffffffffffffffffffffffffffffffff166000600260009054906101000a900473ffffffffffffffffffffffffffffffffffffffff1673ffffffffffffffffffffffffffffffffffffffff166134479092919063ffffffff16565b9695505050505050565b60095481565b6060600d60009054906101000a900473ffffffffffffffffffffffffffffffffffffffff1673ffffffffffffffffffffffffffffffffffffffff1685856000818110611c9e577f4e487b7100000000000000000000000000000000000000000000000000000000600052603260045260246000fd5b9050602002016020810190611cb39190613c13565b73ffffffffffffffffffffffffffffffffffffffff1614611d09576040517f08c379a0000000000000000000000000000000000000000000000000000000008152600401611d0090614428565b60405180910390fd5b600260009054906101000a900473ffffffffffffffffffffffffffffffffffffffff1673ffffffffffffffffffffffffffffffffffffffff168585600188889050611d54919061485b565b818110611d8a577f4e487b7100000000000000000000000000000000000000000000000000000000600052603260045260246000fd5b9050602002016020810190611d9f9190613c13565b73ffffffffffffffffffffffffffffffffffffffff1614611df5576040517f08c379a0000000000000000000000000000000000000000000000000000000008152600401611dec90614428565b60405180910390fd5b6000600160009054906101000a900473ffffffffffffffffffffffffffffffffffffffff1673ffffffffffffffffffffffffffffffffffffffff16631f00ca748888886040518463ffffffff1660e01b8152600401611e56939291906145a3565b60006040518083038186803b158015611e6e57600080fd5b505afa158015611e82573d6000803e3d6000fd5b505050506040513d6000823e3d601f19601f82011682018060405250810190611eab9190613c78565b600081518110611ee4577f4e487b7100000000000000000000000000000000000000000000000000000000600052603260045260246000fd5b6020026020010151905080341015611f31576040517f08c379a0000000000000000000000000000000000000000000000000000000008152600401611f28906144e8565b60405180910390fd5b611f89611f3c611029565b600860003373ffffffffffffffffffffffffffffffffffffffff1673ffffffffffffffffffffffffffffffffffffffff16815260200190815260200160002061301290919063ffffffff16565b158015611f9e5750600a54611f9c611029565b105b1561203b57611ffb611fae611029565b600860003373ffffffffffffffffffffffffffffffffffffffff1673ffffffffffffffffffffffffffffffffffffffff16815260200190815260200160002061315d90919063ffffffff16565b61203a576040517f08c379a0000000000000000000000000000000000000000000000000000000008152600401612031906143e8565b60405180910390fd5b5b600a54600c54146120505761204f87613298565b5b803411156120ab573373ffffffffffffffffffffffffffffffffffffffff166108fc823461207e919061485b565b9081150290604051600060405180830381858888f193505050501580156120a9573d6000803e3d6000fd5b505b600160009054906101000a900473ffffffffffffffffffffffffffffffffffffffff1673ffffffffffffffffffffffffffffffffffffffff16638a657e678289898989896040518763ffffffff1660e01b815260040161210f9594939291906145d5565b6000604051808303818588803b15801561212857600080fd5b505af115801561213c573d6000803e3d6000fd5b50505050506040513d6000823e3d601f19601f820116820180604052508101906121669190613c78565b91505095945050505050565b600c5481565b60008060009054906101000a900473ffffffffffffffffffffffffffffffffffffffff16905090565b6005602052816000526040600020602052806000526040600020600091509150505481565b600080600090506000670de0b6b3a7640000905061222b84600860003373ffffffffffffffffffffffffffffffffffffffff1673ffffffffffffffffffffffffffffffffffffffff16815260200190815260200160002061301290919063ffffffff16565b156123ee576122a6600560003373ffffffffffffffffffffffffffffffffffffffff1673ffffffffffffffffffffffffffffffffffffffff168152602001908152602001600020600086815260200190815260200160002054670de0b6b3a76400006006600088815260200190815260200160002054612bb8565b90506000600c548510156122cf57600760008681526020019081526020016000205490506123cc565b600c548514156123cb5760006122e6600c546135a5565b90507f0000000000000000000000000000000000000000000000000000000000000000811115612338577f00000000000000000000000000000000000000000000000000000000000000009050612398565b600081141561234a5760009050612397565b7f0000000000000000000000000000000000000000000000000000000000000000811015612396577f000000000000000000000000000000000000000000000000000000000000000090505b5b5b6123c7600c54600a546123ab919061485b565b6009546123b891906147d0565b82670de0b6b3a7640000612bb8565b9150505b5b6123df8282670de0b6b3a7640000612bb8565b836123ea919061477a565b9250505b8192505050919050565b6060600d60009054906101000a900473ffffffffffffffffffffffffffffffffffffffff1673ffffffffffffffffffffffffffffffffffffffff168585600081811061246d577f4e487b7100000000000000000000000000000000000000000000000000000000600052603260045260246000fd5b90506020020160208101906124829190613c13565b73ffffffffffffffffffffffffffffffffffffffff16146124d8576040517f08c379a00000000000000000000000000000000000000000000000000000000081526004016124cf90614428565b60405180910390fd5b600260009054906101000a900473ffffffffffffffffffffffffffffffffffffffff1673ffffffffffffffffffffffffffffffffffffffff168585600188889050612523919061485b565b818110612559577f4e487b7100000000000000000000000000000000000000000000000000000000600052603260045260246000fd5b905060200201602081019061256e9190613c13565b73ffffffffffffffffffffffffffffffffffffffff16146125c4576040517f08c379a00000000000000000000000000000000000000000000000000000000081526004016125bb90614428565b60405180910390fd5b60003411612607576040517f08c379a00000000000000000000000000000000000000000000000000000000081526004016125fe906144a8565b60405180910390fd5b61265f612612611029565b600860003373ffffffffffffffffffffffffffffffffffffffff1673ffffffffffffffffffffffffffffffffffffffff16815260200190815260200160002061301290919063ffffffff16565b1580156126745750600a54612672611029565b105b15612711576126d1612684611029565b600860003373ffffffffffffffffffffffffffffffffffffffff1673ffffffffffffffffffffffffffffffffffffffff16815260200190815260200160002061315d90919063ffffffff16565b612710576040517f08c379a000000000000000000000000000000000000000000000000000000000815260040161270790614448565b60405180910390fd5b5b600160009054906101000a900473ffffffffffffffffffffffffffffffffffffffff1673ffffffffffffffffffffffffffffffffffffffff1663a2a1623d3488888888886040518763ffffffff1660e01b81526004016127759594939291906145d5565b6000604051808303818588803b15801561278e57600080fd5b505af11580156127a2573d6000803e3d6000fd5b50505050506040513d6000823e3d601f19601f820116820180604052508101906127cc9190613c78565b9050600a54600c54146128305761282f81600183516127eb919061485b565b81518110612822577f4e487b7100000000000000000000000000000000000000000000000000000000600052603260045260246000fd5b6020026020010151613298565b5b95945050505050565b60076020528060005260406000206000915090505481565b6128596130cc565b73ffffffffffffffffffffffffffffffffffffffff16612877612178565b73ffffffffffffffffffffffffffffffffffffffff16146128cd576040517f08c379a00000000000000000000000000000000000000000000000000000000081526004016128c4906144c8565b60405180910390fd5b806009541015612912576040517f08c379a000000000000000000000000000000000000000000000000000000000815260040161290990614468565b60405180910390fd5b8060096000828254612924919061485b565b925050819055506129783382600360009054906101000a900473ffffffffffffffffffffffffffffffffffffffff1673ffffffffffffffffffffffffffffffffffffffff166130469092919063ffffffff16565b50565b60046020528060005260406000206000915090505481565b6060600160009054906101000a900473ffffffffffffffffffffffffffffffffffffffff1673ffffffffffffffffffffffffffffffffffffffff1663d06ca61f8585856040518463ffffffff1660e01b81526004016129f4939291906145a3565b60006040518083038186803b158015612a0c57600080fd5b505afa158015612a20573d6000803e3d6000fd5b505050506040513d6000823e3d601f19601f82011682018060405250810190612a499190613c78565b90509392505050565b6000612a5c611029565b6001600c54612a6b919061477a565b11158015612a7d5750600a54600c5414155b1580612a8c5750600a54600c54145b905090565b612a996130cc565b73ffffffffffffffffffffffffffffffffffffffff16612ab7612178565b73ffffffffffffffffffffffffffffffffffffffff1614612b0d576040517f08c379a0000000000000000000000000000000000000000000000000000000008152600401612b04906144c8565b60405180910390fd5b600073ffffffffffffffffffffffffffffffffffffffff168173ffffffffffffffffffffffffffffffffffffffff161415612b7d576040517f08c379a0000000000000000000000000000000000000000000000000000000008152600401612b74906143c8565b60405180910390fd5b612b8681613383565b50565b6000612b97826000016135e7565b9050919050565b6000612bad83600001836135f8565b60001c905092915050565b6000808211612bc657600080fd5b6000806000198587098587029250828110838203039150506000811415612bf35783820492505050612d52565b838110612bff57600080fd5b6000848688099050828111820391508083039250600060018619612c23919061477a565b861690508086049550808404935060018182600003040190508083612c489190614801565b8417935060006002876003612c5d9190614801565b1890508087612c6c9190614801565b6002612c78919061485b565b81612c839190614801565b90508087612c919190614801565b6002612c9d919061485b565b81612ca89190614801565b90508087612cb69190614801565b6002612cc2919061485b565b81612ccd9190614801565b90508087612cdb9190614801565b6002612ce7919061485b565b81612cf29190614801565b90508087612d009190614801565b6002612d0c919061485b565b81612d179190614801565b90508087612d259190614801565b6002612d31919061485b565b81612d3c9190614801565b90508085612d4a9190614801565b955050505050505b9392505050565b6000612d63611029565b905060006001600c54600b54612d79919061477a565b612d83919061477a565b9050816001600c54612d95919061477a565b1115612dca577f4e487b7100000000000000000000000000000000000000000000000000000000600052600160045260246000fd5b8060066000600c54815260200190815260200160002054612deb91906147d0565b612e1760046000600c54815260200190815260200160002054600184612e11919061485b565b84612bb8565b612e21919061477a565b600460006001600c54612e34919061477a565b8152602001908152602001600020819055506000612e53600c546135a5565b90507f0000000000000000000000000000000000000000000000000000000000000000811115612ea5577f00000000000000000000000000000000000000000000000000000000000000009050612f05565b6000811415612eb75760009050612f04565b7f0000000000000000000000000000000000000000000000000000000000000000811015612f03577f000000000000000000000000000000000000000000000000000000000000000090505b5b5b6001600a54612f14919061485b565b600c54148015612f2b5750670de0b6b3a764000081115b15612f515760095460076000600c54815260200190815260200160002081905550612f9a565b612f80600c54600a54612f64919061485b565b600954612f7191906147d0565b82670de0b6b3a7640000612bb8565b60076000600c548152602001908152602001600020819055505b60076000600c54815260200190815260200160002054600954612fbd919061485b565b6009819055506001600c6000828254612fd6919061477a565b92505081905550826001600c54612fed919061477a565b11158015612fff5750600a54600c5414155b1561300d5761300c612d59565b5b505050565b6000613024836000018360001b613649565b905092915050565b600061303e836000018360001b61366c565b905092915050565b6130c78363a9059cbb60e01b8484604051602401613065929190614300565b604051602081830303815290604052907bffffffffffffffffffffffffffffffffffffffffffffffffffffffff19166020820180517bffffffffffffffffffffffffffffffffffffffffffffffffffffffff83818316178352505050506137f2565b505050565b600033905090565b613157846323b872dd60e01b8585856040516024016130f5939291906142c9565b604051602081830303815290604052907bffffffffffffffffffffffffffffffffffffffffffffffffffffffff19166020820180517bffffffffffffffffffffffffffffffffffffffffffffffffffffffff83818316178352505050506137f2565b50505050565b600061316f836000018360001b6138b9565b905092915050565b6000818473ffffffffffffffffffffffffffffffffffffffff1663dd62ed3e30866040518363ffffffff1660e01b81526004016131b59291906142a0565b60206040518083038186803b1580156131cd57600080fd5b505afa1580156131e1573d6000803e3d6000fd5b505050506040513d601f19601f820116820180604052508101906132059190613d0b565b61320f919061477a565b90506132928463095ea7b360e01b8584604051602401613230929190614300565b604051602081830303815290604052907bffffffffffffffffffffffffffffffffffffffffffffffffffffffff19166020820180517bffffffffffffffffffffffffffffffffffffffffffffffffffffffff83818316178352505050506137f2565b50505050565b600a546132a3611029565b10156133495780600560003373ffffffffffffffffffffffffffffffffffffffff1673ffffffffffffffffffffffffffffffffffffffff16815260200190815260200160002060006132f3611029565b81526020019081526020016000206000828254613310919061477a565b925050819055508060066000613324611029565b81526020019081526020016000206000828254613341919061477a565b925050819055505b613351611029565b6001600c54613360919061477a565b111580156133725750600a54600c5414155b156133805761337f612d59565b5b50565b60008060009054906101000a900473ffffffffffffffffffffffffffffffffffffffff169050816000806101000a81548173ffffffffffffffffffffffffffffffffffffffff021916908373ffffffffffffffffffffffffffffffffffffffff1602179055508173ffffffffffffffffffffffffffffffffffffffff168173ffffffffffffffffffffffffffffffffffffffff167f8be0079c531659141344cd1fd0a4f28419497f9722a3daafe3b4186f6b6457e060405160405180910390a35050565b60008114806134e0575060008373ffffffffffffffffffffffffffffffffffffffff1663dd62ed3e30856040518363ffffffff1660e01b815260040161348e9291906142a0565b60206040518083038186803b1580156134a657600080fd5b505afa1580156134ba573d6000803e3d6000fd5b505050506040513d601f19601f820116820180604052508101906134de9190613d0b565b145b61351f576040517f08c379a000000000000000000000000000000000000000000000000000000000815260040161351690614568565b60405180910390fd5b6135a08363095ea7b360e01b848460405160240161353e929190614300565b604051602081830303815290604052907bffffffffffffffffffffffffffffffffffffffffffffffffffffffff19166020820180517bffffffffffffffffffffffffffffffffffffffffffffffffffffffff83818316178352505050506137f2565b505050565b60006135e06006600084815260200190815260200160002054670de0b6b3a76400006004600086815260200190815260200160002054612bb8565b9050919050565b600081600001805490509050919050565b6000826000018281548110613636577f4e487b7100000000000000000000000000000000000000000000000000000000600052603260045260246000fd5b9060005260206000200154905092915050565b600080836001016000848152602001908152602001600020541415905092915050565b600080836001016000848152602001908152602001600020549050600081146137e657600060018261369e919061485b565b90506000600186600001805490506136b6919061485b565b90508181146137715760008660000182815481106136fd577f4e487b7100000000000000000000000000000000000000000000000000000000600052603260045260246000fd5b9060005260206000200154905080876000018481548110613747577f4e487b7100000000000000000000000000000000000000000000000000000000600052603260045260246000fd5b90600052602060002001819055508387600101600083815260200190815260200160002081905550505b856000018054806137ab577f4e487b7100000000000000000000000000000000000000000000000000000000600052603160045260246000fd5b6001900381819060005260206000200160009055905585600101600086815260200190815260200160002060009055600193505050506137ec565b60009150505b92915050565b6000613854826040518060400160405280602081526020017f5361666545524332303a206c6f772d6c6576656c2063616c6c206661696c65648152508573ffffffffffffffffffffffffffffffffffffffff166139299092919063ffffffff16565b90506000815111156138b457808060200190518101906138749190613cb9565b6138b3576040517f08c379a00000000000000000000000000000000000000000000000000000000081526004016138aa90614548565b60405180910390fd5b5b505050565b60006138c58383613649565b61391e578260000182908060018154018082558091505060019003906000526020600020016000909190919091505582600001805490508360010160008481526020019081526020016000208190555060019050613923565b600090505b92915050565b60606139388484600085613941565b90509392505050565b606082471015613986576040517f08c379a000000000000000000000000000000000000000000000000000000000815260040161397d90614408565b60405180910390fd5b61398f85613a55565b6139ce576040517f08c379a00000000000000000000000000000000000000000000000000000000081526004016139c590614528565b60405180910390fd5b6000808673ffffffffffffffffffffffffffffffffffffffff1685876040516139f7919061426e565b60006040518083038185875af1925050503d8060008114613a34576040519150601f19603f3d011682016040523d82523d6000602084013e613a39565b606091505b5091509150613a49828286613a78565b92505050949350505050565b6000808273ffffffffffffffffffffffffffffffffffffffff163b119050919050565b60608315613a8857829050613ad8565b600083511115613a9b5782518084602001fd5b816040517f08c379a0000000000000000000000000000000000000000000000000000000008152600401613acf9190614366565b60405180910390fd5b9392505050565b6000613af2613aed846146a4565b61467f565b90508083825260208201905082856020860282011115613b1157600080fd5b60005b85811015613b415781613b278882613bfe565b845260208401935060208301925050600181019050613b14565b5050509392505050565b600081359050613b5a81614ea0565b92915050565b60008083601f840112613b7257600080fd5b8235905067ffffffffffffffff811115613b8b57600080fd5b602083019150836020820283011115613ba357600080fd5b9250929050565b600082601f830112613bbb57600080fd5b8151613bcb848260208601613adf565b91505092915050565b600081519050613be381614eb7565b92915050565b600081359050613bf881614ece565b92915050565b600081519050613c0d81614ece565b92915050565b600060208284031215613c2557600080fd5b6000613c3384828501613b4b565b91505092915050565b60008060408385031215613c4f57600080fd5b6000613c5d85828601613b4b565b9250506020613c6e85828601613be9565b9150509250929050565b600060208284031215613c8a57600080fd5b600082015167ffffffffffffffff811115613ca457600080fd5b613cb084828501613baa565b91505092915050565b600060208284031215613ccb57600080fd5b6000613cd984828501613bd4565b91505092915050565b600060208284031215613cf457600080fd5b6000613d0284828501613be9565b91505092915050565b600060208284031215613d1d57600080fd5b6000613d2b84828501613bfe565b91505092915050565b600080600060408486031215613d4957600080fd5b6000613d5786828701613be9565b935050602084013567ffffffffffffffff811115613d7457600080fd5b613d8086828701613b60565b92509250509250925092565b600080600080600060808688031215613da457600080fd5b6000613db288828901613be9565b955050602086013567ffffffffffffffff811115613dcf57600080fd5b613ddb88828901613b60565b94509450506040613dee88828901613b4b565b9250506060613dff88828901613be9565b9150509295509295909350565b60008060008060008060a08789031215613e2557600080fd5b6000613e3389828a01613be9565b9650506020613e4489828a01613be9565b955050604087013567ffffffffffffffff811115613e6157600080fd5b613e6d89828a01613b60565b94509450506060613e8089828a01613b4b565b9250506080613e9189828a01613be9565b9150509295509295509295565b6000613eaa8383613ece565b60208301905092915050565b6000613ec28383614250565b60208301905092915050565b613ed78161488f565b82525050565b613ee68161488f565b82525050565b6000613ef88385614725565b9350613f03826146d0565b8060005b85811015613f3c57613f198284614763565b613f238882613e9e565b9750613f2e8361470b565b925050600181019050613f07565b5085925050509392505050565b6000613f54826146ea565b613f5e8185614736565b9350613f69836146da565b8060005b83811015613f9a578151613f818882613eb6565b9750613f8c83614718565b925050600181019050613f6d565b5085935050505092915050565b613fb0816148a1565b82525050565b6000613fc1826146f5565b613fcb8185614747565b9350613fdb8185602086016148d7565b80840191505092915050565b6000613ff282614700565b613ffc8185614752565b935061400c8185602086016148d7565b61401581614a11565b840191505092915050565b600061402d602d83614752565b915061403882614a22565b604082019050919050565b6000614050603483614752565b915061405b82614a71565b604082019050919050565b6000614073602683614752565b915061407e82614ac0565b604082019050919050565b6000614096603483614752565b91506140a182614b0f565b604082019050919050565b60006140b9602683614752565b91506140c482614b5e565b604082019050919050565b60006140dc602683614752565b91506140e782614bad565b604082019050919050565b60006140ff603483614752565b915061410a82614bfc565b604082019050919050565b6000614122602a83614752565b915061412d82614c4b565b604082019050919050565b6000614145603483614752565b915061415082614c9a565b604082019050919050565b6000614168602983614752565b915061417382614ce9565b604082019050919050565b600061418b602083614752565b915061419682614d38565b602082019050919050565b60006141ae602e83614752565b91506141b982614d61565b604082019050919050565b60006141d1601c83614752565b91506141dc82614db0565b602082019050919050565b60006141f4601d83614752565b91506141ff82614dd9565b602082019050919050565b6000614217602a83614752565b915061422282614e02565b604082019050919050565b600061423a603683614752565b915061424582614e51565b604082019050919050565b614259816148cd565b82525050565b614268816148cd565b82525050565b600061427a8284613fb6565b915081905092915050565b600060208201905061429a6000830184613edd565b92915050565b60006040820190506142b56000830185613edd565b6142c26020830184613edd565b9392505050565b60006060820190506142de6000830186613edd565b6142eb6020830185613edd565b6142f8604083018461425f565b949350505050565b60006040820190506143156000830185613edd565b614322602083018461425f565b9392505050565b600060208201905081810360008301526143438184613f49565b905092915050565b60006020820190506143606000830184613fa7565b92915050565b600060208201905081810360008301526143808184613fe7565b905092915050565b600060208201905081810360008301526143a181614020565b9050919050565b600060208201905081810360008301526143c181614043565b9050919050565b600060208201905081810360008301526143e181614066565b9050919050565b6000602082019050818103600083015261440181614089565b9050919050565b60006020820190508181036000830152614421816140ac565b9050919050565b60006020820190508181036000830152614441816140cf565b9050919050565b60006020820190508181036000830152614461816140f2565b9050919050565b6000602082019050818103600083015261448181614115565b9050919050565b600060208201905081810360008301526144a181614138565b9050919050565b600060208201905081810360008301526144c18161415b565b9050919050565b600060208201905081810360008301526144e18161417e565b9050919050565b60006020820190508181036000830152614501816141a1565b9050919050565b60006020820190508181036000830152614521816141c4565b9050919050565b60006020820190508181036000830152614541816141e7565b9050919050565b600060208201905081810360008301526145618161420a565b9050919050565b600060208201905081810360008301526145818161422d565b9050919050565b600060208201905061459d600083018461425f565b92915050565b60006040820190506145b8600083018661425f565b81810360208301526145cb818486613eec565b9050949350505050565b60006080820190506145ea600083018861425f565b81810360208301526145fd818688613eec565b905061460c6040830185613edd565b614619606083018461425f565b9695505050505050565b600060a082019050614638600083018961425f565b614645602083018861425f565b8181036040830152614658818688613eec565b90506146676060830185613edd565b614674608083018461425f565b979650505050505050565b600061468961469a565b9050614695828261490a565b919050565b6000604051905090565b600067ffffffffffffffff8211156146bf576146be6149e2565b5b602082029050602081019050919050565b6000819050919050565b6000819050602082019050919050565b600081519050919050565b600081519050919050565b600081519050919050565b6000602082019050919050565b6000602082019050919050565b600082825260208201905092915050565b600082825260208201905092915050565b600081905092915050565b600082825260208201905092915050565b60006147726020840184613b4b565b905092915050565b6000614785826148cd565b9150614790836148cd565b9250827fffffffffffffffffffffffffffffffffffffffffffffffffffffffffffffffff038211156147c5576147c4614984565b5b828201905092915050565b60006147db826148cd565b91506147e6836148cd565b9250826147f6576147f56149b3565b5b828204905092915050565b600061480c826148cd565b9150614817836148cd565b9250817fffffffffffffffffffffffffffffffffffffffffffffffffffffffffffffffff04831182151516156148505761484f614984565b5b828202905092915050565b6000614866826148cd565b9150614871836148cd565b92508282101561488457614883614984565b5b828203905092915050565b600061489a826148ad565b9050919050565b60008115159050919050565b600073ffffffffffffffffffffffffffffffffffffffff82169050919050565b6000819050919050565b60005b838110156148f55780820151818401526020810190506148da565b83811115614904576000848401525b50505050565b61491382614a11565b810181811067ffffffffffffffff82111715614932576149316149e2565b5b80604052505050565b6000614946826148cd565b91507fffffffffffffffffffffffffffffffffffffffffffffffffffffffffffffffff82141561497957614978614984565b5b600182019050919050565b7f4e487b7100000000000000000000000000000000000000000000000000000000600052601160045260246000fd5b7f4e487b7100000000000000000000000000000000000000000000000000000000600052601260045260246000fd5b7f4e487b7100000000000000000000000000000000000000000000000000000000600052604160045260246000fd5b6000601f19601f8301169050919050565b7f5b636c61696d416c6c526577617264735d20556e7375636365737366756c6c2060008201527f736574206f7065726174696f6e00000000000000000000000000000000000000602082015250565b7f5b73776170546f6b656e73466f724578616374415641585d20556e737563636560008201527f737366756c6c20736574206f7065726174696f6e000000000000000000000000602082015250565b7f4f776e61626c653a206e6577206f776e657220697320746865207a65726f206160008201527f6464726573730000000000000000000000000000000000000000000000000000602082015250565b7f5b7377617041564158466f724578616374546f6b656e735d20556e737563636560008201527f737366756c6c20736574206f7065726174696f6e000000000000000000000000602082015250565b7f416464726573733a20696e73756666696369656e742062616c616e636520666f60008201527f722063616c6c0000000000000000000000000000000000000000000000000000602082015250565b7f5b73776170457861637441564158466f72546f6b656e735d20496e76616c696460008201527f2070617468210000000000000000000000000000000000000000000000000000602082015250565b7f5b73776170457861637441564158466f72546f6b656e735d20556e737563636560008201527f737366756c6c20736574206f7065726174696f6e000000000000000000000000602082015250565b7f5b7769746864726177526577617264546f6b656e735d204e6f7420656e6f756760008201527f682062616c616e63652100000000000000000000000000000000000000000000602082015250565b7f5b737761704578616374546f6b656e73466f72415641585d20556e737563636560008201527f737366756c6c20736574206f7065726174696f6e000000000000000000000000602082015250565b7f5b73776170457861637441564158466f72546f6b656e735d204e6f742061206d60008201527f73672e76616c7565210000000000000000000000000000000000000000000000602082015250565b7f4f776e61626c653a2063616c6c6572206973206e6f7420746865206f776e6572600082015250565b7f5b7377617041564158466f724578616374546f6b656e735d204e6f7420656e6f60008201527f756768206d73672e76616c756521000000000000000000000000000000000000602082015250565b7f5b636c61696d416c6c526577617264735d204e6f207265776172642100000000600082015250565b7f416464726573733a2063616c6c20746f206e6f6e2d636f6e7472616374000000600082015250565b7f5361666545524332303a204552433230206f7065726174696f6e20646964206e60008201527f6f74207375636365656400000000000000000000000000000000000000000000602082015250565b7f5361666545524332303a20617070726f76652066726f6d206e6f6e2d7a65726f60008201527f20746f206e6f6e2d7a65726f20616c6c6f77616e636500000000000000000000602082015250565b614ea98161488f565b8114614eb457600080fd5b50565b614ec0816148a1565b8114614ecb57600080fd5b50565b614ed7816148cd565b8114614ee257600080fd5b5056fea2646970667358221220429816396d6e865d4e293ecf3a7c679c44fdde91edb472ac4785b149262b395e64736f6c634300080400336465706c6f796564206e6577206661726d2061742025732077697468206f776e6572206f66202573a264697066735822122022ffa22732dfda41522c952e91b2f14b12af202aed17135f2a9efe6741e2e3fa64736f6c63430008040033",
  "linkReferences": {},
  "deployedLinkReferences": {}
}